{"contracts/EncryptedMessaging.sol":{"EncryptedMessaging":{"abi":[{"anonymous":false,"inputs":[{"indexed":true,"internalType":"address","name":"owner","type":"address"},{"indexed":false,"internalType":"bytes32","name":"rsaPubKeySha256","type":"bytes32"},{"indexed":false,"internalType":"string","name":"rsaPubKeyURI","type":"string"},{"indexed":false,"internalType":"uint64","name":"updatedAt","type":"uint64"}],"name":"KeyRegistered","type":"event"},{"anonymous":false,"inputs":[{"indexed":true,"internalType":"uint256","name":"id","type":"uint256"},{"indexed":true,"internalType":"address","name":"sender","type":"address"},{"indexed":true,"internalType":"address","name":"recipient","type":"address"},{"indexed":false,"internalType":"uint64","name":"timestamp","type":"uint64"},{"indexed":false,"internalType":"bytes32","name":"sha256Hash","type":"bytes32"},{"indexed":false,"internalType":"bytes12","name":"iv","type":"bytes12"},{"indexed":false,"internalType":"bytes32","name":"contentCidHash","type":"bytes32"},{"indexed":false,"internalType":"bytes32","name":"keyCidHash","type":"bytes32"},{"indexed":false,"internalType":"uint128","name":"nonce","type":"uint128"}],"name":"MessageSent","type":"event"},{"anonymous":false,"inputs":[{"indexed":false,"internalType":"uint64","name":"newValue","type":"uint64"}],"name":"MinIntervalUpdated","type":"event"},{"inputs":[{"internalType":"address","name":"user","type":"address"}],"name":"getInboxIds","outputs":[{"internalType":"uint256[]","name":"","type":"uint256[]"}],"stateMutability":"view","type":"function"},{"inputs":[{"internalType":"address","name":"user","type":"address"}],"name":"getOutboxIds","outputs":[{"internalType":"uint256[]","name":"","type":"uint256[]"}],"stateMutability":"view","type":"function"},{"inputs":[{"internalType":"address","name":"sender_","type":"address"},{"internalType":"address","name":"recipient_","type":"address"},{"internalType":"bytes12","name":"iv_","type":"bytes12"}],"name":"isIVUsed","outputs":[{"internalType":"bool","name":"","type":"bool"}],"stateMutability":"view","type":"function"},{"inputs":[{"internalType":"address","name":"","type":"address"}],"name":"keyRegistry","outputs":[{"internalType":"bytes32","name":"rsaPubKeySha256","type":"bytes32"},{"internalType":"string","name":"rsaPubKeyURI","type":"string"},{"internalType":"uint64","name":"updatedAt","type":"uint64"}],"stateMutability":"view","type":"function"},{"inputs":[{"internalType":"address","name":"","type":"address"}],"name":"lastNonce","outputs":[{"internalType":"uint128","name":"","type":"uint128"}],"stateMutability":"view","type":"function"},{"inputs":[{"internalType":"address","name":"","type":"address"}],"name":"lastSentAt","outputs":[{"internalType":"uint64","name":"","type":"uint64"}],"stateMutability":"view","type":"function"},{"inputs":[{"internalType":"uint256","name":"","type":"uint256"}],"name":"messages","outputs":[{"internalType":"uint256","name":"id","type":"uint256"},{"internalType":"address","name":"sender","type":"address"},{"internalType":"address","name":"recipient","type":"address"},{"internalType":"uint64","name":"timestamp","type":"uint64"},{"internalType":"bytes32","name":"sha256Hash","type":"bytes32"},{"internalType":"bytes12","name":"iv","type":"bytes12"},{"internalType":"bytes32","name":"contentCidHash","type":"bytes32"},{"internalType":"bytes32","name":"keyCidHash","type":"bytes32"},{"internalType":"uint128","name":"nonce","type":"uint128"},{"internalType":"bytes32","name":"sigR","type":"bytes32"},{"internalType":"bytes32","name":"sigS","type":"bytes32"},{"internalType":"uint8","name":"sigV","type":"uint8"}],"stateMutability":"view","type":"function"},{"inputs":[],"name":"minIntervalSeconds","outputs":[{"internalType":"uint64","name":"","type":"uint64"}],"stateMutability":"view","type":"function"},{"inputs":[],"name":"nextMessageId","outputs":[{"internalType":"uint256","name":"","type":"uint256"}],"stateMutability":"view","type":"function"},{"inputs":[{"internalType":"bytes32","name":"rsaPubKeySha256","type":"bytes32"},{"internalType":"string","name":"rsaPubKeyURI","type":"string"}],"name":"registerRSAPublicKey","outputs":[],"stateMutability":"nonpayable","type":"function"},{"inputs":[{"internalType":"address","name":"recipient","type":"address"},{"internalType":"string","name":"contentCID","type":"string"},{"internalType":"string","name":"keyCID","type":"string"},{"internalType":"bytes32","name":"sha256Hash","type":"bytes32"},{"internalType":"bytes12","name":"iv","type":"bytes12"},{"internalType":"uint128","name":"nonce","type":"uint128"},{"internalType":"uint8","name":"sigV","type":"uint8"},{"internalType":"bytes32","name":"sigR","type":"bytes32"},{"internalType":"bytes32","name":"sigS","type":"bytes32"}],"name":"sendMessage","outputs":[],"stateMutability":"nonpayable","type":"function"},{"inputs":[{"internalType":"uint64","name":"newValue","type":"uint64"}],"name":"setMinInterval","outputs":[],"stateMutability":"nonpayable","type":"function"},{"inputs":[{"internalType":"address","name":"","type":"address"},{"internalType":"address","name":"","type":"address"},{"internalType":"bytes12","name":"","type":"bytes12"}],"name":"usedIV","outputs":[{"internalType":"bool","name":"","type":"bool"}],"stateMutability":"view","type":"function"}],"evm":{"bytecode":{"linkReferences":{},"object":"60808060405234602d576001600055600580546001600160401b031916600a17905561108290816100338239f35b600080fdfe608080604052600436101561001357600080fd5b60003560e01c9081630d80fefd14610de7575080631c02f4a414610b94578063384cf25014610a5057806355f49ee2146109ec57806384d278c8146109c55780638826ff30146109825780639b3b18381461090b5780639e21d58214610890578063c048052014610890578063c0fd43b41461084d578063cef4910014610158578063ed80cea1146100d15763eefbf17e146100ae57600080fd5b346100cc5760003660031901126100cc576020600054604051908152f35b600080fd5b346100cc5760203660031901126100cc576001600160a01b036100f2610eea565b166000526002602052604060002060405190816020825491828152019160005260206000209060005b8181106101425761013e8561013281870382610f50565b60405191829182610f71565b0390f35b825484526020909301926001928301920161011b565b346100cc576101203660031901126100cc57610172610eea565b6024356001600160401b0381116100cc57610191903690600401610ebd565b906044356001600160401b0381116100cc576101b1903690600401610ebd565b9093606435916084356001600160601b0360a01b81168091036100cc5760a435936001600160801b038516948581036100cc5760c4359060ff82168092036100cc576001600160a01b03861699610104359860e43592918c1561081a5785156107e65786156107bb576001600160401b0342169b3360005260066020526001600160401b03604060002054168d036001600160401b03811161059c576001600160401b038060055416911610610787573360005260066020528c6001600160401b03604060002091166001600160401b03198254161790553360005260076020528d60406000209060005260205260406000208860005260205260ff60406000205416610750573360005260076020528d6040600020906000526020526040600020886000526020526040600020600160ff1982541617905533600052600460205260016001600160801b0360406000205416016001600160801b03811161059c576001600160801b03168b0361071f5761035e9261034f9133600052600460205260406000208d6001600160801b03198254161790553691610fc2565b60208151910120973691610fc2565b60208151910120968315801590610716575b801561070d575b6105b2575b505060005497600019891461059c57600189016000556040519161018083018381106001600160401b03821117610586578888888f8f908f918f96604052828a5260208a0133815260408b0192835260608b0191825260808b01938d855260a08c0195865260c08c0196875260e08c019788526101008c019889526101208c01998a526101408c019a8b526101608c019c8d52600052600160205260406000209a518b55600160a01b6001900390511660018b0190600160a01b60019003166001600160601b0360a01b82541617905560028a0191600160a01b6001900390600160a01b60019003905116166001600160601b0360a01b835416178255518154906001600160401b0360a01b9060a01b16906001600160401b0360a01b191617905551600388015560048701905160a01c6001600160601b0319825416179055516005860155516006850155516001600160801b031660078401906001600160801b03166001600160801b0319825416179055516008830155516009820155600a01905160ff1660ff198254161790558760005260026020528560406000209061052591611008565b3360005260036020528560406000209061053e91611008565b604051968752602087015260408601526060850152608084015260a0830152339160c07fda5cb07489957835aa53d8a96301528dbb9134d15b23733da97140db2448f48c91a4005b634e487b7160e01b600052604160045260246000fd5b634e487b7160e01b600052601160045260246000fd5b60806000916020936040519085820192601960f81b8452604560f81b60218401526326a9a39d60e11b60228401523360601b60268401526001600160601b03199060601b16603a8301526001600160401b0360c01b4260c01b16604e8301528860568301528960768301528a60828301528b60a28301526001600160801b031990841b1660c282015260b2815261064a60d282610f50565b519020604051848101917f19457468657265756d205369676e6564204d6573736167653a0a3332000000008352603c820152603c815261068b605c82610f50565b51902060405190815285848201528460408201528b606082015282805260015afa1561070157600051336001600160a01b03909116036106cc578a8061037c565b60405162461bcd60e51b815260206004820152600d60248201526c626164207369676e617475726560981b6044820152606490fd5b6040513d6000823e3d90fd5b50891515610377565b50821515610370565b60405162461bcd60e51b8152602060048201526009602482015268626164206e6f6e636560b81b6044820152606490fd5b60405162461bcd60e51b815260206004820152600f60248201526e125588185b1c9958591e481d5cd959608a1b6044820152606490fd5b60405162461bcd60e51b815260206004820152600c60248201526b1c985d194b5b1a5b5a5d195960a21b6044820152606490fd5b606460405162461bcd60e51b8152602060048201526004602482015263069763d360e41b6044820152fd5b60405162461bcd60e51b815260206004820152600c60248201526b0736861323536486173683d360a41b6044820152606490fd5b60405162461bcd60e51b815260206004820152600b60248201526a0726563697069656e743d360ac1b6044820152606490fd5b346100cc5760203660031901126100cc576001600160a01b0361086e610eea565b16600052600460205260206001600160801b0360406000205416604051908152f35b346100cc5760603660031901126100cc576108a9610eea565b6108b1610f00565b6108b9610fab565b9160018060a01b0316600052600760205260406000209060018060a01b03166000526020526040600020906001600160601b0360a01b16600052602052602060ff604060002054166040519015158152f35b346100cc5760203660031901126100cc576001600160a01b0361092c610eea565b166000526003602052604060002060405190816020825491828152019160005260206000209060005b81811061096c5761013e8561013281870382610f50565b8254845260209093019260019283019201610955565b346100cc5760203660031901126100cc576001600160a01b036109a3610eea565b16600052600660205260206001600160401b0360406000205416604051908152f35b346100cc5760003660031901126100cc5760206001600160401b0360055416604051908152f35b346100cc5760203660031901126100cc576004356001600160401b0381168091036100cc576020817f4d253b68d4960f0af3cea709af737b5bc27f2f172a993c9d45cbc707b4f1729d926001600160401b03196005541617600555604051908152a1005b346100cc5760203660031901126100cc576001600160a01b03610a71610eea565b166000526008602052604060002080549060018101906040518092600090805490610a9b82610f16565b8085529160018116908115610b6c5750600114610b2b575b505091610acc6002926001600160401b03940385610f50565b0154169160405192839182526060602083015282519283606084015260005b848110610b135750509160809260008483850101526040830152601f80199101168101030190f35b60208282018101516080888401015286945001610aeb565b6000908152602081209092505b818310610b505750508101602001610acc6002610ab3565b6020919350806001915483858901015201910190918492610b38565b60ff191660208087019190915292151560051b85019092019250610acc915060029050610ab3565b346100cc5760403660031901126100cc576004356024356001600160401b0381116100cc57610bc7903690600401610ebd565b90916001600160401b03421660405193606085018581106001600160401b0382111761058657604052828552610bfe368583610fc2565b9460208101958652604081018381523360005260086020526040600020915182556001820196519687516001600160401b03811161058657610c408254610f16565b601f8111610d9f575b506020601f8211600114610d05578899936001600160401b03938360029486947f1b8a797ef4b8902477fe33df457b928271302bae164dccefd39d4d8adb0596f29d9a9998600092610cfa575b50508160011b916000199060031b1c19161790555b5116920191166001600160401b031982541617905560405193845260606020850152816060850152608084013760006080858401015260408201526080813394601f80199101168101030190a2005b015190508e80610c96565b98601f19821690836000528a6000209160005b818110610d875750936001846001600160401b0396948d9e7f1b8a797ef4b8902477fe33df457b928271302bae164dccefd39d4d8adb0596f29e9b9a99956002988a9810610d6e575b505050811b019055610cab565b015160001960f88460031b161c191690558e8080610d61565b828d0151845560209c8d019c60019094019301610d18565b826000526020600020601f830160051c81019160208410610ddd575b601f0160051c01905b818110610dd15750610c49565b60008155600101610dc4565b9091508190610dbb565b346100cc5760203660031901126100cc57610180906004356000526001602052604060002080549060018060a01b0360018201541660028201546003830154600484015460a01b6005850154906006860154926001600160401b036001600160801b036007890154169560088901549760ff600a60098c01549b0154169a8c5260208c015260018060a01b03811660408c015260a01c1660608a015260808901526001600160601b0360a01b1660a088015260c087015260e0860152610100850152610120840152610140830152610160820152f35b9181601f840112156100cc578235916001600160401b0383116100cc57602083818601950101116100cc57565b600435906001600160a01b03821682036100cc57565b602435906001600160a01b03821682036100cc57565b90600182811c92168015610f46575b6020831014610f3057565b634e487b7160e01b600052602260045260246000fd5b91607f1691610f25565b90601f801991011681019081106001600160401b0382111761058657604052565b602060408183019282815284518094520192019060005b818110610f955750505090565b8251845260209384019390920191600101610f88565b604435906001600160a01b0319821682036100cc57565b9291926001600160401b0382116105865760405191610feb601f8201601f191660200184610f50565b8294818452818301116100cc578281602093846000960137010152565b8054906801000000000000000082101561058657600182018082558210156110365760005260206000200155565b634e487b7160e01b600052603260045260246000fdfea26469706673582212207e36dc71d85260789f8731c584783b9e2b987e9fbbb8b5277990a5cc4b35eb9a64736f6c634300081c0033","opcodes":"PUSH1 0x80 DUP1 PUSH1 0x40 MSTORE CALLVALUE PUSH1 0x2D JUMPI PUSH1 0x1 PUSH1 0x0 SSTORE PUSH1 0x5 DUP1 SLOAD PUSH1 0x1 PUSH1 0x1 PUSH1 0x40 SHL SUB NOT AND PUSH1 0xA OR SWAP1 SSTORE PUSH2 0x1082 SWAP1 DUP2 PUSH2 0x33 DUP3 CODECOPY RETURN JUMPDEST PUSH1 0x0 DUP1 REVERT INVALID PUSH1 0x80 DUP1 PUSH1 0x40 MSTORE PUSH1 0x4 CALLDATASIZE LT ISZERO PUSH2 0x13 JUMPI PUSH1 0x0 DUP1 REVERT JUMPDEST PUSH1 0x0 CALLDATALOAD PUSH1 0xE0 SHR SWAP1 DUP2 PUSH4 0xD80FEFD EQ PUSH2 0xDE7 JUMPI POP DUP1 PUSH4 0x1C02F4A4 EQ PUSH2 0xB94 JUMPI DUP1 PUSH4 0x384CF250 EQ PUSH2 0xA50 JUMPI DUP1 PUSH4 0x55F49EE2 EQ PUSH2 0x9EC JUMPI DUP1 PUSH4 0x84D278C8 EQ PUSH2 0x9C5 JUMPI DUP1 PUSH4 0x8826FF30 EQ PUSH2 0x982 JUMPI DUP1 PUSH4 0x9B3B1838 EQ PUSH2 0x90B JUMPI DUP1 PUSH4 0x9E21D582 EQ PUSH2 0x890 JUMPI DUP1 PUSH4 0xC0480520 EQ PUSH2 0x890 JUMPI DUP1 PUSH4 0xC0FD43B4 EQ PUSH2 0x84D JUMPI DUP1 PUSH4 0xCEF49100 EQ PUSH2 0x158 JUMPI DUP1 PUSH4 0xED80CEA1 EQ PUSH2 0xD1 JUMPI PUSH4 0xEEFBF17E EQ PUSH2 0xAE JUMPI PUSH1 0x0 DUP1 REVERT JUMPDEST CALLVALUE PUSH2 0xCC JUMPI PUSH1 0x0 CALLDATASIZE PUSH1 0x3 NOT ADD SLT PUSH2 0xCC JUMPI PUSH1 0x20 PUSH1 0x0 SLOAD PUSH1 0x40 MLOAD SWAP1 DUP2 MSTORE RETURN JUMPDEST PUSH1 0x0 DUP1 REVERT JUMPDEST CALLVALUE PUSH2 0xCC JUMPI PUSH1 0x20 CALLDATASIZE PUSH1 0x3 NOT ADD SLT PUSH2 0xCC JUMPI PUSH1 0x1 PUSH1 0x1 PUSH1 0xA0 SHL SUB PUSH2 0xF2 PUSH2 0xEEA JUMP JUMPDEST AND PUSH1 0x0 MSTORE PUSH1 0x2 PUSH1 0x20 MSTORE PUSH1 0x40 PUSH1 0x0 KECCAK256 PUSH1 0x40 MLOAD SWAP1 DUP2 PUSH1 0x20 DUP3 SLOAD SWAP2 DUP3 DUP2 MSTORE ADD SWAP2 PUSH1 0x0 MSTORE PUSH1 0x20 PUSH1 0x0 KECCAK256 SWAP1 PUSH1 0x0 JUMPDEST DUP2 DUP2 LT PUSH2 0x142 JUMPI PUSH2 0x13E DUP6 PUSH2 0x132 DUP2 DUP8 SUB DUP3 PUSH2 0xF50 JUMP JUMPDEST PUSH1 0x40 MLOAD SWAP2 DUP3 SWAP2 DUP3 PUSH2 0xF71 JUMP JUMPDEST SUB SWAP1 RETURN JUMPDEST DUP3 SLOAD DUP5 MSTORE PUSH1 0x20 SWAP1 SWAP4 ADD SWAP3 PUSH1 0x1 SWAP3 DUP4 ADD SWAP3 ADD PUSH2 0x11B JUMP JUMPDEST CALLVALUE PUSH2 0xCC JUMPI PUSH2 0x120 CALLDATASIZE PUSH1 0x3 NOT ADD SLT PUSH2 0xCC JUMPI PUSH2 0x172 PUSH2 0xEEA JUMP JUMPDEST PUSH1 0x24 CALLDATALOAD PUSH1 0x1 PUSH1 0x1 PUSH1 0x40 SHL SUB DUP2 GT PUSH2 0xCC JUMPI PUSH2 0x191 SWAP1 CALLDATASIZE SWAP1 PUSH1 0x4 ADD PUSH2 0xEBD JUMP JUMPDEST SWAP1 PUSH1 0x44 CALLDATALOAD PUSH1 0x1 PUSH1 0x1 PUSH1 0x40 SHL SUB DUP2 GT PUSH2 0xCC JUMPI PUSH2 0x1B1 SWAP1 CALLDATASIZE SWAP1 PUSH1 0x4 ADD PUSH2 0xEBD JUMP JUMPDEST SWAP1 SWAP4 PUSH1 0x64 CALLDATALOAD SWAP2 PUSH1 0x84 CALLDATALOAD PUSH1 0x1 PUSH1 0x1 PUSH1 0x60 SHL SUB PUSH1 0xA0 SHL DUP2 AND DUP1 SWAP2 SUB PUSH2 0xCC JUMPI PUSH1 0xA4 CALLDATALOAD SWAP4 PUSH1 0x1 PUSH1 0x1 PUSH1 0x80 SHL SUB DUP6 AND SWAP5 DUP6 DUP2 SUB PUSH2 0xCC JUMPI PUSH1 0xC4 CALLDATALOAD SWAP1 PUSH1 0xFF DUP3 AND DUP1 SWAP3 SUB PUSH2 0xCC JUMPI PUSH1 0x1 PUSH1 0x1 PUSH1 0xA0 SHL SUB DUP7 AND SWAP10 PUSH2 0x104 CALLDATALOAD SWAP9 PUSH1 0xE4 CALLDATALOAD SWAP3 SWAP2 DUP13 ISZERO PUSH2 0x81A JUMPI DUP6 ISZERO PUSH2 0x7E6 JUMPI DUP7 ISZERO PUSH2 0x7BB JUMPI PUSH1 0x1 PUSH1 0x1 PUSH1 0x40 SHL SUB TIMESTAMP AND SWAP12 CALLER PUSH1 0x0 MSTORE PUSH1 0x6 PUSH1 0x20 MSTORE PUSH1 0x1 PUSH1 0x1 PUSH1 0x40 SHL SUB PUSH1 0x40 PUSH1 0x0 KECCAK256 SLOAD AND DUP14 SUB PUSH1 0x1 PUSH1 0x1 PUSH1 0x40 SHL SUB DUP2 GT PUSH2 0x59C JUMPI PUSH1 0x1 PUSH1 0x1 PUSH1 0x40 SHL SUB DUP1 PUSH1 0x5 SLOAD AND SWAP2 AND LT PUSH2 0x787 JUMPI CALLER PUSH1 0x0 MSTORE PUSH1 0x6 PUSH1 0x20 MSTORE DUP13 PUSH1 0x1 PUSH1 0x1 PUSH1 0x40 SHL SUB PUSH1 0x40 PUSH1 0x0 KECCAK256 SWAP2 AND PUSH1 0x1 PUSH1 0x1 PUSH1 0x40 SHL SUB NOT DUP3 SLOAD AND OR SWAP1 SSTORE CALLER PUSH1 0x0 MSTORE PUSH1 0x7 PUSH1 0x20 MSTORE DUP14 PUSH1 0x40 PUSH1 0x0 KECCAK256 SWAP1 PUSH1 0x0 MSTORE PUSH1 0x20 MSTORE PUSH1 0x40 PUSH1 0x0 KECCAK256 DUP9 PUSH1 0x0 MSTORE PUSH1 0x20 MSTORE PUSH1 0xFF PUSH1 0x40 PUSH1 0x0 KECCAK256 SLOAD AND PUSH2 0x750 JUMPI CALLER PUSH1 0x0 MSTORE PUSH1 0x7 PUSH1 0x20 MSTORE DUP14 PUSH1 0x40 PUSH1 0x0 KECCAK256 SWAP1 PUSH1 0x0 MSTORE PUSH1 0x20 MSTORE PUSH1 0x40 PUSH1 0x0 KECCAK256 DUP9 PUSH1 0x0 MSTORE PUSH1 0x20 MSTORE PUSH1 0x40 PUSH1 0x0 KECCAK256 PUSH1 0x1 PUSH1 0xFF NOT DUP3 SLOAD AND OR SWAP1 SSTORE CALLER PUSH1 0x0 MSTORE PUSH1 0x4 PUSH1 0x20 MSTORE PUSH1 0x1 PUSH1 0x1 PUSH1 0x1 PUSH1 0x80 SHL SUB PUSH1 0x40 PUSH1 0x0 KECCAK256 SLOAD AND ADD PUSH1 0x1 PUSH1 0x1 PUSH1 0x80 SHL SUB DUP2 GT PUSH2 0x59C JUMPI PUSH1 0x1 PUSH1 0x1 PUSH1 0x80 SHL SUB AND DUP12 SUB PUSH2 0x71F JUMPI PUSH2 0x35E SWAP3 PUSH2 0x34F SWAP2 CALLER PUSH1 0x0 MSTORE PUSH1 0x4 PUSH1 0x20 MSTORE PUSH1 0x40 PUSH1 0x0 KECCAK256 DUP14 PUSH1 0x1 PUSH1 0x1 PUSH1 0x80 SHL SUB NOT DUP3 SLOAD AND OR SWAP1 SSTORE CALLDATASIZE SWAP2 PUSH2 0xFC2 JUMP JUMPDEST PUSH1 0x20 DUP2 MLOAD SWAP2 ADD KECCAK256 SWAP8 CALLDATASIZE SWAP2 PUSH2 0xFC2 JUMP JUMPDEST PUSH1 0x20 DUP2 MLOAD SWAP2 ADD KECCAK256 SWAP7 DUP4 ISZERO DUP1 ISZERO SWAP1 PUSH2 0x716 JUMPI JUMPDEST DUP1 ISZERO PUSH2 0x70D JUMPI JUMPDEST PUSH2 0x5B2 JUMPI JUMPDEST POP POP PUSH1 0x0 SLOAD SWAP8 PUSH1 0x0 NOT DUP10 EQ PUSH2 0x59C JUMPI PUSH1 0x1 DUP10 ADD PUSH1 0x0 SSTORE PUSH1 0x40 MLOAD SWAP2 PUSH2 0x180 DUP4 ADD DUP4 DUP2 LT PUSH1 0x1 PUSH1 0x1 PUSH1 0x40 SHL SUB DUP3 GT OR PUSH2 0x586 JUMPI DUP9 DUP9 DUP9 DUP16 DUP16 SWAP1 DUP16 SWAP2 DUP16 SWAP7 PUSH1 0x40 MSTORE DUP3 DUP11 MSTORE PUSH1 0x20 DUP11 ADD CALLER DUP2 MSTORE PUSH1 0x40 DUP12 ADD SWAP3 DUP4 MSTORE PUSH1 0x60 DUP12 ADD SWAP2 DUP3 MSTORE PUSH1 0x80 DUP12 ADD SWAP4 DUP14 DUP6 MSTORE PUSH1 0xA0 DUP13 ADD SWAP6 DUP7 MSTORE PUSH1 0xC0 DUP13 ADD SWAP7 DUP8 MSTORE PUSH1 0xE0 DUP13 ADD SWAP8 DUP9 MSTORE PUSH2 0x100 DUP13 ADD SWAP9 DUP10 MSTORE PUSH2 0x120 DUP13 ADD SWAP10 DUP11 MSTORE PUSH2 0x140 DUP13 ADD SWAP11 DUP12 MSTORE PUSH2 0x160 DUP13 ADD SWAP13 DUP14 MSTORE PUSH1 0x0 MSTORE PUSH1 0x1 PUSH1 0x20 MSTORE PUSH1 0x40 PUSH1 0x0 KECCAK256 SWAP11 MLOAD DUP12 SSTORE PUSH1 0x1 PUSH1 0xA0 SHL PUSH1 0x1 SWAP1 SUB SWAP1 MLOAD AND PUSH1 0x1 DUP12 ADD SWAP1 PUSH1 0x1 PUSH1 0xA0 SHL PUSH1 0x1 SWAP1 SUB AND PUSH1 0x1 PUSH1 0x1 PUSH1 0x60 SHL SUB PUSH1 0xA0 SHL DUP3 SLOAD AND OR SWAP1 SSTORE PUSH1 0x2 DUP11 ADD SWAP2 PUSH1 0x1 PUSH1 0xA0 SHL PUSH1 0x1 SWAP1 SUB SWAP1 PUSH1 0x1 PUSH1 0xA0 SHL PUSH1 0x1 SWAP1 SUB SWAP1 MLOAD AND AND PUSH1 0x1 PUSH1 0x1 PUSH1 0x60 SHL SUB PUSH1 0xA0 SHL DUP4 SLOAD AND OR DUP3 SSTORE MLOAD DUP2 SLOAD SWAP1 PUSH1 0x1 PUSH1 0x1 PUSH1 0x40 SHL SUB PUSH1 0xA0 SHL SWAP1 PUSH1 0xA0 SHL AND SWAP1 PUSH1 0x1 PUSH1 0x1 PUSH1 0x40 SHL SUB PUSH1 0xA0 SHL NOT AND OR SWAP1 SSTORE MLOAD PUSH1 0x3 DUP9 ADD SSTORE PUSH1 0x4 DUP8 ADD SWAP1 MLOAD PUSH1 0xA0 SHR PUSH1 0x1 PUSH1 0x1 PUSH1 0x60 SHL SUB NOT DUP3 SLOAD AND OR SWAP1 SSTORE MLOAD PUSH1 0x5 DUP7 ADD SSTORE MLOAD PUSH1 0x6 DUP6 ADD SSTORE MLOAD PUSH1 0x1 PUSH1 0x1 PUSH1 0x80 SHL SUB AND PUSH1 0x7 DUP5 ADD SWAP1 PUSH1 0x1 PUSH1 0x1 PUSH1 0x80 SHL SUB AND PUSH1 0x1 PUSH1 0x1 PUSH1 0x80 SHL SUB NOT DUP3 SLOAD AND OR SWAP1 SSTORE MLOAD PUSH1 0x8 DUP4 ADD SSTORE MLOAD PUSH1 0x9 DUP3 ADD SSTORE PUSH1 0xA ADD SWAP1 MLOAD PUSH1 0xFF AND PUSH1 0xFF NOT DUP3 SLOAD AND OR SWAP1 SSTORE DUP8 PUSH1 0x0 MSTORE PUSH1 0x2 PUSH1 0x20 MSTORE DUP6 PUSH1 0x40 PUSH1 0x0 KECCAK256 SWAP1 PUSH2 0x525 SWAP2 PUSH2 0x1008 JUMP JUMPDEST CALLER PUSH1 0x0 MSTORE PUSH1 0x3 PUSH1 0x20 MSTORE DUP6 PUSH1 0x40 PUSH1 0x0 KECCAK256 SWAP1 PUSH2 0x53E SWAP2 PUSH2 0x1008 JUMP JUMPDEST PUSH1 0x40 MLOAD SWAP7 DUP8 MSTORE PUSH1 0x20 DUP8 ADD MSTORE PUSH1 0x40 DUP7 ADD MSTORE PUSH1 0x60 DUP6 ADD MSTORE PUSH1 0x80 DUP5 ADD MSTORE PUSH1 0xA0 DUP4 ADD MSTORE CALLER SWAP2 PUSH1 0xC0 PUSH32 0xDA5CB07489957835AA53D8A96301528DBB9134D15B23733DA97140DB2448F48C SWAP2 LOG4 STOP JUMPDEST PUSH4 0x4E487B71 PUSH1 0xE0 SHL PUSH1 0x0 MSTORE PUSH1 0x41 PUSH1 0x4 MSTORE PUSH1 0x24 PUSH1 0x0 REVERT JUMPDEST PUSH4 0x4E487B71 PUSH1 0xE0 SHL PUSH1 0x0 MSTORE PUSH1 0x11 PUSH1 0x4 MSTORE PUSH1 0x24 PUSH1 0x0 REVERT JUMPDEST PUSH1 0x80 PUSH1 0x0 SWAP2 PUSH1 0x20 SWAP4 PUSH1 0x40 MLOAD SWAP1 DUP6 DUP3 ADD SWAP3 PUSH1 0x19 PUSH1 0xF8 SHL DUP5 MSTORE PUSH1 0x45 PUSH1 0xF8 SHL PUSH1 0x21 DUP5 ADD MSTORE PUSH4 0x26A9A39D PUSH1 0xE1 SHL PUSH1 0x22 DUP5 ADD MSTORE CALLER PUSH1 0x60 SHL PUSH1 0x26 DUP5 ADD MSTORE PUSH1 0x1 PUSH1 0x1 PUSH1 0x60 SHL SUB NOT SWAP1 PUSH1 0x60 SHL AND PUSH1 0x3A DUP4 ADD MSTORE PUSH1 0x1 PUSH1 0x1 PUSH1 0x40 SHL SUB PUSH1 0xC0 SHL TIMESTAMP PUSH1 0xC0 SHL AND PUSH1 0x4E DUP4 ADD MSTORE DUP9 PUSH1 0x56 DUP4 ADD MSTORE DUP10 PUSH1 0x76 DUP4 ADD MSTORE DUP11 PUSH1 0x82 DUP4 ADD MSTORE DUP12 PUSH1 0xA2 DUP4 ADD MSTORE PUSH1 0x1 PUSH1 0x1 PUSH1 0x80 SHL SUB NOT SWAP1 DUP5 SHL AND PUSH1 0xC2 DUP3 ADD MSTORE PUSH1 0xB2 DUP2 MSTORE PUSH2 0x64A PUSH1 0xD2 DUP3 PUSH2 0xF50 JUMP JUMPDEST MLOAD SWAP1 KECCAK256 PUSH1 0x40 MLOAD DUP5 DUP2 ADD SWAP2 PUSH32 0x19457468657265756D205369676E6564204D6573736167653A0A333200000000 DUP4 MSTORE PUSH1 0x3C DUP3 ADD MSTORE PUSH1 0x3C DUP2 MSTORE PUSH2 0x68B PUSH1 0x5C DUP3 PUSH2 0xF50 JUMP JUMPDEST MLOAD SWAP1 KECCAK256 PUSH1 0x40 MLOAD SWAP1 DUP2 MSTORE DUP6 DUP5 DUP3 ADD MSTORE DUP5 PUSH1 0x40 DUP3 ADD MSTORE DUP12 PUSH1 0x60 DUP3 ADD MSTORE DUP3 DUP1 MSTORE PUSH1 0x1 GAS STATICCALL ISZERO PUSH2 0x701 JUMPI PUSH1 0x0 MLOAD CALLER PUSH1 0x1 PUSH1 0x1 PUSH1 0xA0 SHL SUB SWAP1 SWAP2 AND SUB PUSH2 0x6CC JUMPI DUP11 DUP1 PUSH2 0x37C JUMP JUMPDEST PUSH1 0x40 MLOAD PUSH3 0x461BCD PUSH1 0xE5 SHL DUP2 MSTORE PUSH1 0x20 PUSH1 0x4 DUP3 ADD MSTORE PUSH1 0xD PUSH1 0x24 DUP3 ADD MSTORE PUSH13 0x626164207369676E6174757265 PUSH1 0x98 SHL PUSH1 0x44 DUP3 ADD MSTORE PUSH1 0x64 SWAP1 REVERT JUMPDEST PUSH1 0x40 MLOAD RETURNDATASIZE PUSH1 0x0 DUP3 RETURNDATACOPY RETURNDATASIZE SWAP1 REVERT JUMPDEST POP DUP10 ISZERO ISZERO PUSH2 0x377 JUMP JUMPDEST POP DUP3 ISZERO ISZERO PUSH2 0x370 JUMP JUMPDEST PUSH1 0x40 MLOAD PUSH3 0x461BCD PUSH1 0xE5 SHL DUP2 MSTORE PUSH1 0x20 PUSH1 0x4 DUP3 ADD MSTORE PUSH1 0x9 PUSH1 0x24 DUP3 ADD MSTORE PUSH9 0x626164206E6F6E6365 PUSH1 0xB8 SHL PUSH1 0x44 DUP3 ADD MSTORE PUSH1 0x64 SWAP1 REVERT JUMPDEST PUSH1 0x40 MLOAD PUSH3 0x461BCD PUSH1 0xE5 SHL DUP2 MSTORE PUSH1 0x20 PUSH1 0x4 DUP3 ADD MSTORE PUSH1 0xF PUSH1 0x24 DUP3 ADD MSTORE PUSH15 0x125588185B1C9958591E481D5CD959 PUSH1 0x8A SHL PUSH1 0x44 DUP3 ADD MSTORE PUSH1 0x64 SWAP1 REVERT JUMPDEST PUSH1 0x40 MLOAD PUSH3 0x461BCD PUSH1 0xE5 SHL DUP2 MSTORE PUSH1 0x20 PUSH1 0x4 DUP3 ADD MSTORE PUSH1 0xC PUSH1 0x24 DUP3 ADD MSTORE PUSH12 0x1C985D194B5B1A5B5A5D1959 PUSH1 0xA2 SHL PUSH1 0x44 DUP3 ADD MSTORE PUSH1 0x64 SWAP1 REVERT JUMPDEST PUSH1 0x64 PUSH1 0x40 MLOAD PUSH3 0x461BCD PUSH1 0xE5 SHL DUP2 MSTORE PUSH1 0x20 PUSH1 0x4 DUP3 ADD MSTORE PUSH1 0x4 PUSH1 0x24 DUP3 ADD MSTORE PUSH4 0x69763D3 PUSH1 0xE4 SHL PUSH1 0x44 DUP3 ADD MSTORE REVERT JUMPDEST PUSH1 0x40 MLOAD PUSH3 0x461BCD PUSH1 0xE5 SHL DUP2 MSTORE PUSH1 0x20 PUSH1 0x4 DUP3 ADD MSTORE PUSH1 0xC PUSH1 0x24 DUP3 ADD MSTORE PUSH12 0x736861323536486173683D3 PUSH1 0xA4 SHL PUSH1 0x44 DUP3 ADD MSTORE PUSH1 0x64 SWAP1 REVERT JUMPDEST PUSH1 0x40 MLOAD PUSH3 0x461BCD PUSH1 0xE5 SHL DUP2 MSTORE PUSH1 0x20 PUSH1 0x4 DUP3 ADD MSTORE PUSH1 0xB PUSH1 0x24 DUP3 ADD MSTORE PUSH11 0x726563697069656E743D3 PUSH1 0xAC SHL PUSH1 0x44 DUP3 ADD MSTORE PUSH1 0x64 SWAP1 REVERT JUMPDEST CALLVALUE PUSH2 0xCC JUMPI PUSH1 0x20 CALLDATASIZE PUSH1 0x3 NOT ADD SLT PUSH2 0xCC JUMPI PUSH1 0x1 PUSH1 0x1 PUSH1 0xA0 SHL SUB PUSH2 0x86E PUSH2 0xEEA JUMP JUMPDEST AND PUSH1 0x0 MSTORE PUSH1 0x4 PUSH1 0x20 MSTORE PUSH1 0x20 PUSH1 0x1 PUSH1 0x1 PUSH1 0x80 SHL SUB PUSH1 0x40 PUSH1 0x0 KECCAK256 SLOAD AND PUSH1 0x40 MLOAD SWAP1 DUP2 MSTORE RETURN JUMPDEST CALLVALUE PUSH2 0xCC JUMPI PUSH1 0x60 CALLDATASIZE PUSH1 0x3 NOT ADD SLT PUSH2 0xCC JUMPI PUSH2 0x8A9 PUSH2 0xEEA JUMP JUMPDEST PUSH2 0x8B1 PUSH2 0xF00 JUMP JUMPDEST PUSH2 0x8B9 PUSH2 0xFAB JUMP JUMPDEST SWAP2 PUSH1 0x1 DUP1 PUSH1 0xA0 SHL SUB AND PUSH1 0x0 MSTORE PUSH1 0x7 PUSH1 0x20 MSTORE PUSH1 0x40 PUSH1 0x0 KECCAK256 SWAP1 PUSH1 0x1 DUP1 PUSH1 0xA0 SHL SUB AND PUSH1 0x0 MSTORE PUSH1 0x20 MSTORE PUSH1 0x40 PUSH1 0x0 KECCAK256 SWAP1 PUSH1 0x1 PUSH1 0x1 PUSH1 0x60 SHL SUB PUSH1 0xA0 SHL AND PUSH1 0x0 MSTORE PUSH1 0x20 MSTORE PUSH1 0x20 PUSH1 0xFF PUSH1 0x40 PUSH1 0x0 KECCAK256 SLOAD AND PUSH1 0x40 MLOAD SWAP1 ISZERO ISZERO DUP2 MSTORE RETURN JUMPDEST CALLVALUE PUSH2 0xCC JUMPI PUSH1 0x20 CALLDATASIZE PUSH1 0x3 NOT ADD SLT PUSH2 0xCC JUMPI PUSH1 0x1 PUSH1 0x1 PUSH1 0xA0 SHL SUB PUSH2 0x92C PUSH2 0xEEA JUMP JUMPDEST AND PUSH1 0x0 MSTORE PUSH1 0x3 PUSH1 0x20 MSTORE PUSH1 0x40 PUSH1 0x0 KECCAK256 PUSH1 0x40 MLOAD SWAP1 DUP2 PUSH1 0x20 DUP3 SLOAD SWAP2 DUP3 DUP2 MSTORE ADD SWAP2 PUSH1 0x0 MSTORE PUSH1 0x20 PUSH1 0x0 KECCAK256 SWAP1 PUSH1 0x0 JUMPDEST DUP2 DUP2 LT PUSH2 0x96C JUMPI PUSH2 0x13E DUP6 PUSH2 0x132 DUP2 DUP8 SUB DUP3 PUSH2 0xF50 JUMP JUMPDEST DUP3 SLOAD DUP5 MSTORE PUSH1 0x20 SWAP1 SWAP4 ADD SWAP3 PUSH1 0x1 SWAP3 DUP4 ADD SWAP3 ADD PUSH2 0x955 JUMP JUMPDEST CALLVALUE PUSH2 0xCC JUMPI PUSH1 0x20 CALLDATASIZE PUSH1 0x3 NOT ADD SLT PUSH2 0xCC JUMPI PUSH1 0x1 PUSH1 0x1 PUSH1 0xA0 SHL SUB PUSH2 0x9A3 PUSH2 0xEEA JUMP JUMPDEST AND PUSH1 0x0 MSTORE PUSH1 0x6 PUSH1 0x20 MSTORE PUSH1 0x20 PUSH1 0x1 PUSH1 0x1 PUSH1 0x40 SHL SUB PUSH1 0x40 PUSH1 0x0 KECCAK256 SLOAD AND PUSH1 0x40 MLOAD SWAP1 DUP2 MSTORE RETURN JUMPDEST CALLVALUE PUSH2 0xCC JUMPI PUSH1 0x0 CALLDATASIZE PUSH1 0x3 NOT ADD SLT PUSH2 0xCC JUMPI PUSH1 0x20 PUSH1 0x1 PUSH1 0x1 PUSH1 0x40 SHL SUB PUSH1 0x5 SLOAD AND PUSH1 0x40 MLOAD SWAP1 DUP2 MSTORE RETURN JUMPDEST CALLVALUE PUSH2 0xCC JUMPI PUSH1 0x20 CALLDATASIZE PUSH1 0x3 NOT ADD SLT PUSH2 0xCC JUMPI PUSH1 0x4 CALLDATALOAD PUSH1 0x1 PUSH1 0x1 PUSH1 0x40 SHL SUB DUP2 AND DUP1 SWAP2 SUB PUSH2 0xCC JUMPI PUSH1 0x20 DUP2 PUSH32 0x4D253B68D4960F0AF3CEA709AF737B5BC27F2F172A993C9D45CBC707B4F1729D SWAP3 PUSH1 0x1 PUSH1 0x1 PUSH1 0x40 SHL SUB NOT PUSH1 0x5 SLOAD AND OR PUSH1 0x5 SSTORE PUSH1 0x40 MLOAD SWAP1 DUP2 MSTORE LOG1 STOP JUMPDEST CALLVALUE PUSH2 0xCC JUMPI PUSH1 0x20 CALLDATASIZE PUSH1 0x3 NOT ADD SLT PUSH2 0xCC JUMPI PUSH1 0x1 PUSH1 0x1 PUSH1 0xA0 SHL SUB PUSH2 0xA71 PUSH2 0xEEA JUMP JUMPDEST AND PUSH1 0x0 MSTORE PUSH1 0x8 PUSH1 0x20 MSTORE PUSH1 0x40 PUSH1 0x0 KECCAK256 DUP1 SLOAD SWAP1 PUSH1 0x1 DUP2 ADD SWAP1 PUSH1 0x40 MLOAD DUP1 SWAP3 PUSH1 0x0 SWAP1 DUP1 SLOAD SWAP1 PUSH2 0xA9B DUP3 PUSH2 0xF16 JUMP JUMPDEST DUP1 DUP6 MSTORE SWAP2 PUSH1 0x1 DUP2 AND SWAP1 DUP2 ISZERO PUSH2 0xB6C JUMPI POP PUSH1 0x1 EQ PUSH2 0xB2B JUMPI JUMPDEST POP POP SWAP2 PUSH2 0xACC PUSH1 0x2 SWAP3 PUSH1 0x1 PUSH1 0x1 PUSH1 0x40 SHL SUB SWAP5 SUB DUP6 PUSH2 0xF50 JUMP JUMPDEST ADD SLOAD AND SWAP2 PUSH1 0x40 MLOAD SWAP3 DUP4 SWAP2 DUP3 MSTORE PUSH1 0x60 PUSH1 0x20 DUP4 ADD MSTORE DUP3 MLOAD SWAP3 DUP4 PUSH1 0x60 DUP5 ADD MSTORE PUSH1 0x0 JUMPDEST DUP5 DUP2 LT PUSH2 0xB13 JUMPI POP POP SWAP2 PUSH1 0x80 SWAP3 PUSH1 0x0 DUP5 DUP4 DUP6 ADD ADD MSTORE PUSH1 0x40 DUP4 ADD MSTORE PUSH1 0x1F DUP1 NOT SWAP2 ADD AND DUP2 ADD SUB ADD SWAP1 RETURN JUMPDEST PUSH1 0x20 DUP3 DUP3 ADD DUP2 ADD MLOAD PUSH1 0x80 DUP9 DUP5 ADD ADD MSTORE DUP7 SWAP5 POP ADD PUSH2 0xAEB JUMP JUMPDEST PUSH1 0x0 SWAP1 DUP2 MSTORE PUSH1 0x20 DUP2 KECCAK256 SWAP1 SWAP3 POP JUMPDEST DUP2 DUP4 LT PUSH2 0xB50 JUMPI POP POP DUP2 ADD PUSH1 0x20 ADD PUSH2 0xACC PUSH1 0x2 PUSH2 0xAB3 JUMP JUMPDEST PUSH1 0x20 SWAP2 SWAP4 POP DUP1 PUSH1 0x1 SWAP2 SLOAD DUP4 DUP6 DUP10 ADD ADD MSTORE ADD SWAP2 ADD SWAP1 SWAP2 DUP5 SWAP3 PUSH2 0xB38 JUMP JUMPDEST PUSH1 0xFF NOT AND PUSH1 0x20 DUP1 DUP8 ADD SWAP2 SWAP1 SWAP2 MSTORE SWAP3 ISZERO ISZERO PUSH1 0x5 SHL DUP6 ADD SWAP1 SWAP3 ADD SWAP3 POP PUSH2 0xACC SWAP2 POP PUSH1 0x2 SWAP1 POP PUSH2 0xAB3 JUMP JUMPDEST CALLVALUE PUSH2 0xCC JUMPI PUSH1 0x40 CALLDATASIZE PUSH1 0x3 NOT ADD SLT PUSH2 0xCC JUMPI PUSH1 0x4 CALLDATALOAD PUSH1 0x24 CALLDATALOAD PUSH1 0x1 PUSH1 0x1 PUSH1 0x40 SHL SUB DUP2 GT PUSH2 0xCC JUMPI PUSH2 0xBC7 SWAP1 CALLDATASIZE SWAP1 PUSH1 0x4 ADD PUSH2 0xEBD JUMP JUMPDEST SWAP1 SWAP2 PUSH1 0x1 PUSH1 0x1 PUSH1 0x40 SHL SUB TIMESTAMP AND PUSH1 0x40 MLOAD SWAP4 PUSH1 0x60 DUP6 ADD DUP6 DUP2 LT PUSH1 0x1 PUSH1 0x1 PUSH1 0x40 SHL SUB DUP3 GT OR PUSH2 0x586 JUMPI PUSH1 0x40 MSTORE DUP3 DUP6 MSTORE PUSH2 0xBFE CALLDATASIZE DUP6 DUP4 PUSH2 0xFC2 JUMP JUMPDEST SWAP5 PUSH1 0x20 DUP2 ADD SWAP6 DUP7 MSTORE PUSH1 0x40 DUP2 ADD DUP4 DUP2 MSTORE CALLER PUSH1 0x0 MSTORE PUSH1 0x8 PUSH1 0x20 MSTORE PUSH1 0x40 PUSH1 0x0 KECCAK256 SWAP2 MLOAD DUP3 SSTORE PUSH1 0x1 DUP3 ADD SWAP7 MLOAD SWAP7 DUP8 MLOAD PUSH1 0x1 PUSH1 0x1 PUSH1 0x40 SHL SUB DUP2 GT PUSH2 0x586 JUMPI PUSH2 0xC40 DUP3 SLOAD PUSH2 0xF16 JUMP JUMPDEST PUSH1 0x1F DUP2 GT PUSH2 0xD9F JUMPI JUMPDEST POP PUSH1 0x20 PUSH1 0x1F DUP3 GT PUSH1 0x1 EQ PUSH2 0xD05 JUMPI DUP9 SWAP10 SWAP4 PUSH1 0x1 PUSH1 0x1 PUSH1 0x40 SHL SUB SWAP4 DUP4 PUSH1 0x2 SWAP5 DUP7 SWAP5 PUSH32 0x1B8A797EF4B8902477FE33DF457B928271302BAE164DCCEFD39D4D8ADB0596F2 SWAP14 SWAP11 SWAP10 SWAP9 PUSH1 0x0 SWAP3 PUSH2 0xCFA JUMPI JUMPDEST POP POP DUP2 PUSH1 0x1 SHL SWAP2 PUSH1 0x0 NOT SWAP1 PUSH1 0x3 SHL SHR NOT AND OR SWAP1 SSTORE JUMPDEST MLOAD AND SWAP3 ADD SWAP2 AND PUSH1 0x1 PUSH1 0x1 PUSH1 0x40 SHL SUB NOT DUP3 SLOAD AND OR SWAP1 SSTORE PUSH1 0x40 MLOAD SWAP4 DUP5 MSTORE PUSH1 0x60 PUSH1 0x20 DUP6 ADD MSTORE DUP2 PUSH1 0x60 DUP6 ADD MSTORE PUSH1 0x80 DUP5 ADD CALLDATACOPY PUSH1 0x0 PUSH1 0x80 DUP6 DUP5 ADD ADD MSTORE PUSH1 0x40 DUP3 ADD MSTORE PUSH1 0x80 DUP2 CALLER SWAP5 PUSH1 0x1F DUP1 NOT SWAP2 ADD AND DUP2 ADD SUB ADD SWAP1 LOG2 STOP JUMPDEST ADD MLOAD SWAP1 POP DUP15 DUP1 PUSH2 0xC96 JUMP JUMPDEST SWAP9 PUSH1 0x1F NOT DUP3 AND SWAP1 DUP4 PUSH1 0x0 MSTORE DUP11 PUSH1 0x0 KECCAK256 SWAP2 PUSH1 0x0 JUMPDEST DUP2 DUP2 LT PUSH2 0xD87 JUMPI POP SWAP4 PUSH1 0x1 DUP5 PUSH1 0x1 PUSH1 0x1 PUSH1 0x40 SHL SUB SWAP7 SWAP5 DUP14 SWAP15 PUSH32 0x1B8A797EF4B8902477FE33DF457B928271302BAE164DCCEFD39D4D8ADB0596F2 SWAP15 SWAP12 SWAP11 SWAP10 SWAP6 PUSH1 0x2 SWAP9 DUP11 SWAP9 LT PUSH2 0xD6E JUMPI JUMPDEST POP POP POP DUP2 SHL ADD SWAP1 SSTORE PUSH2 0xCAB JUMP JUMPDEST ADD MLOAD PUSH1 0x0 NOT PUSH1 0xF8 DUP5 PUSH1 0x3 SHL AND SHR NOT AND SWAP1 SSTORE DUP15 DUP1 DUP1 PUSH2 0xD61 JUMP JUMPDEST DUP3 DUP14 ADD MLOAD DUP5 SSTORE PUSH1 0x20 SWAP13 DUP14 ADD SWAP13 PUSH1 0x1 SWAP1 SWAP5 ADD SWAP4 ADD PUSH2 0xD18 JUMP JUMPDEST DUP3 PUSH1 0x0 MSTORE PUSH1 0x20 PUSH1 0x0 KECCAK256 PUSH1 0x1F DUP4 ADD PUSH1 0x5 SHR DUP2 ADD SWAP2 PUSH1 0x20 DUP5 LT PUSH2 0xDDD JUMPI JUMPDEST PUSH1 0x1F ADD PUSH1 0x5 SHR ADD SWAP1 JUMPDEST DUP2 DUP2 LT PUSH2 0xDD1 JUMPI POP PUSH2 0xC49 JUMP JUMPDEST PUSH1 0x0 DUP2 SSTORE PUSH1 0x1 ADD PUSH2 0xDC4 JUMP JUMPDEST SWAP1 SWAP2 POP DUP2 SWAP1 PUSH2 0xDBB JUMP JUMPDEST CALLVALUE PUSH2 0xCC JUMPI PUSH1 0x20 CALLDATASIZE PUSH1 0x3 NOT ADD SLT PUSH2 0xCC JUMPI PUSH2 0x180 SWAP1 PUSH1 0x4 CALLDATALOAD PUSH1 0x0 MSTORE PUSH1 0x1 PUSH1 0x20 MSTORE PUSH1 0x40 PUSH1 0x0 KECCAK256 DUP1 SLOAD SWAP1 PUSH1 0x1 DUP1 PUSH1 0xA0 SHL SUB PUSH1 0x1 DUP3 ADD SLOAD AND PUSH1 0x2 DUP3 ADD SLOAD PUSH1 0x3 DUP4 ADD SLOAD PUSH1 0x4 DUP5 ADD SLOAD PUSH1 0xA0 SHL PUSH1 0x5 DUP6 ADD SLOAD SWAP1 PUSH1 0x6 DUP7 ADD SLOAD SWAP3 PUSH1 0x1 PUSH1 0x1 PUSH1 0x40 SHL SUB PUSH1 0x1 PUSH1 0x1 PUSH1 0x80 SHL SUB PUSH1 0x7 DUP10 ADD SLOAD AND SWAP6 PUSH1 0x8 DUP10 ADD SLOAD SWAP8 PUSH1 0xFF PUSH1 0xA PUSH1 0x9 DUP13 ADD SLOAD SWAP12 ADD SLOAD AND SWAP11 DUP13 MSTORE PUSH1 0x20 DUP13 ADD MSTORE PUSH1 0x1 DUP1 PUSH1 0xA0 SHL SUB DUP2 AND PUSH1 0x40 DUP13 ADD MSTORE PUSH1 0xA0 SHR AND PUSH1 0x60 DUP11 ADD MSTORE PUSH1 0x80 DUP10 ADD MSTORE PUSH1 0x1 PUSH1 0x1 PUSH1 0x60 SHL SUB PUSH1 0xA0 SHL AND PUSH1 0xA0 DUP9 ADD MSTORE PUSH1 0xC0 DUP8 ADD MSTORE PUSH1 0xE0 DUP7 ADD MSTORE PUSH2 0x100 DUP6 ADD MSTORE PUSH2 0x120 DUP5 ADD MSTORE PUSH2 0x140 DUP4 ADD MSTORE PUSH2 0x160 DUP3 ADD MSTORE RETURN JUMPDEST SWAP2 DUP2 PUSH1 0x1F DUP5 ADD SLT ISZERO PUSH2 0xCC JUMPI DUP3 CALLDATALOAD SWAP2 PUSH1 0x1 PUSH1 0x1 PUSH1 0x40 SHL SUB DUP4 GT PUSH2 0xCC JUMPI PUSH1 0x20 DUP4 DUP2 DUP7 ADD SWAP6 ADD ADD GT PUSH2 0xCC JUMPI JUMP JUMPDEST PUSH1 0x4 CALLDATALOAD SWAP1 PUSH1 0x1 PUSH1 0x1 PUSH1 0xA0 SHL SUB DUP3 AND DUP3 SUB PUSH2 0xCC JUMPI JUMP JUMPDEST PUSH1 0x24 CALLDATALOAD SWAP1 PUSH1 0x1 PUSH1 0x1 PUSH1 0xA0 SHL SUB DUP3 AND DUP3 SUB PUSH2 0xCC JUMPI JUMP JUMPDEST SWAP1 PUSH1 0x1 DUP3 DUP2 SHR SWAP3 AND DUP1 ISZERO PUSH2 0xF46 JUMPI JUMPDEST PUSH1 0x20 DUP4 LT EQ PUSH2 0xF30 JUMPI JUMP JUMPDEST PUSH4 0x4E487B71 PUSH1 0xE0 SHL PUSH1 0x0 MSTORE PUSH1 0x22 PUSH1 0x4 MSTORE PUSH1 0x24 PUSH1 0x0 REVERT JUMPDEST SWAP2 PUSH1 0x7F AND SWAP2 PUSH2 0xF25 JUMP JUMPDEST SWAP1 PUSH1 0x1F DUP1 NOT SWAP2 ADD AND DUP2 ADD SWAP1 DUP2 LT PUSH1 0x1 PUSH1 0x1 PUSH1 0x40 SHL SUB DUP3 GT OR PUSH2 0x586 JUMPI PUSH1 0x40 MSTORE JUMP JUMPDEST PUSH1 0x20 PUSH1 0x40 DUP2 DUP4 ADD SWAP3 DUP3 DUP2 MSTORE DUP5 MLOAD DUP1 SWAP5 MSTORE ADD SWAP3 ADD SWAP1 PUSH1 0x0 JUMPDEST DUP2 DUP2 LT PUSH2 0xF95 JUMPI POP POP POP SWAP1 JUMP JUMPDEST DUP3 MLOAD DUP5 MSTORE PUSH1 0x20 SWAP4 DUP5 ADD SWAP4 SWAP1 SWAP3 ADD SWAP2 PUSH1 0x1 ADD PUSH2 0xF88 JUMP JUMPDEST PUSH1 0x44 CALLDATALOAD SWAP1 PUSH1 0x1 PUSH1 0x1 PUSH1 0xA0 SHL SUB NOT DUP3 AND DUP3 SUB PUSH2 0xCC JUMPI JUMP JUMPDEST SWAP3 SWAP2 SWAP3 PUSH1 0x1 PUSH1 0x1 PUSH1 0x40 SHL SUB DUP3 GT PUSH2 0x586 JUMPI PUSH1 0x40 MLOAD SWAP2 PUSH2 0xFEB PUSH1 0x1F DUP3 ADD PUSH1 0x1F NOT AND PUSH1 0x20 ADD DUP5 PUSH2 0xF50 JUMP JUMPDEST DUP3 SWAP5 DUP2 DUP5 MSTORE DUP2 DUP4 ADD GT PUSH2 0xCC JUMPI DUP3 DUP2 PUSH1 0x20 SWAP4 DUP5 PUSH1 0x0 SWAP7 ADD CALLDATACOPY ADD ADD MSTORE JUMP JUMPDEST DUP1 SLOAD SWAP1 PUSH9 0x10000000000000000 DUP3 LT ISZERO PUSH2 0x586 JUMPI PUSH1 0x1 DUP3 ADD DUP1 DUP3 SSTORE DUP3 LT ISZERO PUSH2 0x1036 JUMPI PUSH1 0x0 MSTORE PUSH1 0x20 PUSH1 0x0 KECCAK256 ADD SSTORE JUMP JUMPDEST PUSH4 0x4E487B71 PUSH1 0xE0 SHL PUSH1 0x0 MSTORE PUSH1 0x32 PUSH1 0x4 MSTORE PUSH1 0x24 PUSH1 0x0 REVERT INVALID LOG2 PUSH5 0x6970667358 0x22 SLT KECCAK256 PUSH31 0x36DC71D85260789F8731C584783B9E2B987E9FBBB8B5277990A5CC4B35EB9A PUSH5 0x736F6C6343 STOP ADDMOD SHR STOP CALLER "},"methodIdentifiers":{"getInboxIds(address)":"ed80cea1","getOutboxIds(address)":"9b3b1838","isIVUsed(address,address,bytes12)":"c0480520","keyRegistry(address)":"384cf250","lastNonce(address)":"c0fd43b4","lastSentAt(address)":"8826ff30","messages(uint256)":"0d80fefd","minIntervalSeconds()":"84d278c8","nextMessageId()":"eefbf17e","registerRSAPublicKey(bytes32,string)":"1c02f4a4","sendMessage(address,string,string,bytes32,bytes12,uint128,uint8,bytes32,bytes32)":"cef49100","setMinInterval(uint64)":"55f49ee2","usedIV(address,address,bytes12)":"9e21d582"}}}}}